{
  "contractName": "TaskContract",
  "abi": [
    {
      "inputs": [],
      "stateMutability": "nonpayable",
      "type": "constructor"
    },
    {
      "anonymous": false,
      "inputs": [
        {
          "indexed": false,
          "internalType": "uint256",
          "name": "id",
          "type": "uint256"
        },
        {
          "indexed": false,
          "internalType": "string",
          "name": "description",
          "type": "string"
        },
        {
          "indexed": false,
          "internalType": "bool",
          "name": "completed",
          "type": "bool"
        },
        {
          "indexed": false,
          "internalType": "uint256",
          "name": "createdAt",
          "type": "uint256"
        }
      ],
      "name": "TaskCreated",
      "type": "event"
    },
    {
      "inputs": [],
      "name": "taskCounter",
      "outputs": [
        {
          "internalType": "uint256",
          "name": "",
          "type": "uint256"
        }
      ],
      "stateMutability": "view",
      "type": "function",
      "constant": true
    },
    {
      "inputs": [
        {
          "internalType": "uint256",
          "name": "",
          "type": "uint256"
        }
      ],
      "name": "tasks",
      "outputs": [
        {
          "internalType": "uint256",
          "name": "id",
          "type": "uint256"
        },
        {
          "internalType": "string",
          "name": "description",
          "type": "string"
        },
        {
          "internalType": "bool",
          "name": "completed",
          "type": "bool"
        },
        {
          "internalType": "uint256",
          "name": "createdAt",
          "type": "uint256"
        }
      ],
      "stateMutability": "view",
      "type": "function",
      "constant": true
    },
    {
      "inputs": [
        {
          "internalType": "string",
          "name": "_description",
          "type": "string"
        }
      ],
      "name": "createTask",
      "outputs": [],
      "stateMutability": "nonpayable",
      "type": "function"
    },
    {
      "inputs": [
        {
          "internalType": "uint256",
          "name": "_id",
          "type": "uint256"
        }
      ],
      "name": "toggleCompleted",
      "outputs": [],
      "stateMutability": "nonpayable",
      "type": "function"
    }
  ],
  "bytecode": "0x6080604052600080553480156200001557600080fd5b506200005c6040518060400160405280601581526020017f706f6e65722070617461746173206120636f63657200000000000000000000008152506200006260201b60201c565b62000412565b60405180608001604052806000548152602001828152602001600015158152602001428152506001600080548152602001908152602001600020600082015181600001556020820151816001019080519060200190620000c492919062000150565b5060408201518160020160006101000a81548160ff02191690831515021790555060608201518160030155905050600080815480929190620001069062000355565b91905055507ff844eff5bb3b551f3ab172f7edad2073ce268e60cbb5bf8a7b6d5e41154b0f466000548260004260405162000145949392919062000263565b60405180910390a150565b8280546200015e906200031f565b90600052602060002090601f016020900481019282620001825760008555620001ce565b82601f106200019d57805160ff1916838001178555620001ce565b82800160010185558215620001ce579182015b82811115620001cd578251825591602001919060010190620001b0565b5b509050620001dd9190620001e1565b5090565b5b80821115620001fc576000816000905550600101620001e2565b5090565b6200020b81620002d3565b82525050565b60006200021e82620002b7565b6200022a8185620002c2565b93506200023c818560208601620002e9565b620002478162000401565b840191505092915050565b6200025d81620002df565b82525050565b60006080820190506200027a600083018762000252565b81810360208301526200028e818662000211565b90506200029f604083018562000200565b620002ae606083018462000252565b95945050505050565b600081519050919050565b600082825260208201905092915050565b60008115159050919050565b6000819050919050565b60005b8381101562000309578082015181840152602081019050620002ec565b8381111562000319576000848401525b50505050565b600060028204905060018216806200033857607f821691505b602082108114156200034f576200034e620003d2565b5b50919050565b60006200036282620002df565b91507fffffffffffffffffffffffffffffffffffffffffffffffffffffffffffffffff821415620003985762000397620003a3565b5b600182019050919050565b7f4e487b7100000000000000000000000000000000000000000000000000000000600052601160045260246000fd5b7f4e487b7100000000000000000000000000000000000000000000000000000000600052602260045260246000fd5b6000601f19601f8301169050919050565b6108c280620004226000396000f3fe608060405234801561001057600080fd5b506004361061004c5760003560e01c8063111002aa14610051578063455f50241461006d57806358671730146100895780638d977672146100a7575b600080fd5b61006b60048036038101906100669190610519565b6100da565b005b61008760048036038101906100829190610562565b6101c2565b005b610091610326565b60405161009e91906105e6565b60405180910390f35b6100c160048036038101906100bc9190610562565b61032c565b6040516100d19493929190610601565b60405180910390f35b6040518060800160405280600054815260200182815260200160001515815260200142815250600160008054815260200190815260200160002060008201518160000155602082015181600101908051906020019061013a9291906103f1565b5060408201518160020160006101000a81548160ff0219169083151502179055506060820151816003015590505060008081548092919061017a9061077a565b91905055507ff844eff5bb3b551f3ab172f7edad2073ce268e60cbb5bf8a7b6d5e41154b0f46600054826000426040516101b79493929190610601565b60405180910390a150565b600060016000838152602001908152602001600020604051806080016040529081600082015481526020016001820180546101fc90610717565b80601f016020809104026020016040519081016040528092919081815260200182805461022890610717565b80156102755780601f1061024a57610100808354040283529160200191610275565b820191906000526020600020905b81548152906001019060200180831161025857829003601f168201915b505050505081526020016002820160009054906101000a900460ff16151515158152602001600382015481525050905080604001511581604001901515908115158152505080600160008481526020019081526020016000206000820151816000015560208201518160010190805190602001906102f49291906103f1565b5060408201518160020160006101000a81548160ff021916908315150217905550606082015181600301559050505050565b60005481565b600160205280600052604060002060009150905080600001549080600101805461035590610717565b80601f016020809104026020016040519081016040528092919081815260200182805461038190610717565b80156103ce5780601f106103a3576101008083540402835291602001916103ce565b820191906000526020600020905b8154815290600101906020018083116103b157829003601f168201915b5050505050908060020160009054906101000a900460ff16908060030154905084565b8280546103fd90610717565b90600052602060002090601f01602090048101928261041f5760008555610466565b82601f1061043857805160ff1916838001178555610466565b82800160010185558215610466579182015b8281111561046557825182559160200191906001019061044a565b5b5090506104739190610477565b5090565b5b80821115610490576000816000905550600101610478565b5090565b60006104a76104a284610672565b61064d565b9050828152602081018484840111156104c3576104c2610855565b5b6104ce8482856106d5565b509392505050565b600082601f8301126104eb576104ea610850565b5b81356104fb848260208601610494565b91505092915050565b60008135905061051381610875565b92915050565b60006020828403121561052f5761052e61085f565b5b600082013567ffffffffffffffff81111561054d5761054c61085a565b5b610559848285016104d6565b91505092915050565b6000602082840312156105785761057761085f565b5b600061058684828501610504565b91505092915050565b610598816106bf565b82525050565b60006105a9826106a3565b6105b381856106ae565b93506105c38185602086016106e4565b6105cc81610864565b840191505092915050565b6105e0816106cb565b82525050565b60006020820190506105fb60008301846105d7565b92915050565b600060808201905061061660008301876105d7565b8181036020830152610628818661059e565b9050610637604083018561058f565b61064460608301846105d7565b95945050505050565b6000610657610668565b90506106638282610749565b919050565b6000604051905090565b600067ffffffffffffffff82111561068d5761068c610821565b5b61069682610864565b9050602081019050919050565b600081519050919050565b600082825260208201905092915050565b60008115159050919050565b6000819050919050565b82818337600083830152505050565b60005b838110156107025780820151818401526020810190506106e7565b83811115610711576000848401525b50505050565b6000600282049050600182168061072f57607f821691505b60208210811415610743576107426107f2565b5b50919050565b61075282610864565b810181811067ffffffffffffffff8211171561077157610770610821565b5b80604052505050565b6000610785826106cb565b91507fffffffffffffffffffffffffffffffffffffffffffffffffffffffffffffffff8214156107b8576107b76107c3565b5b600182019050919050565b7f4e487b7100000000000000000000000000000000000000000000000000000000600052601160045260246000fd5b7f4e487b7100000000000000000000000000000000000000000000000000000000600052602260045260246000fd5b7f4e487b7100000000000000000000000000000000000000000000000000000000600052604160045260246000fd5b600080fd5b600080fd5b600080fd5b600080fd5b6000601f19601f8301169050919050565b61087e816106cb565b811461088957600080fd5b5056fea2646970667358221220f612c450ede85f8b6600e3efb52557a23ab3418c0fd54536b2bebb7865bee77e64736f6c63430008060033",
  "immutableReferences": {},
  "source": "// SPDX-License-Identifier: MIT\npragma solidity ^0.8.6;\n\ncontract TaskContract {\n\n    uint public taskCounter = 0;\n\n    event TaskCreated (\n        uint id,\n        string description,\n        bool completed,\n        uint createdAt\n    );\n\n    struct Task {\n        uint id;\n        string description;\n        bool completed;\n        uint createdAt;\n    }\n\n    mapping (uint256 => Task) public tasks;\n\n    //este codigo se ejecuta al inicio del contrato\n    constructor () {\n        createTask(\"poner patatas a cocer\");\n    }\n\n    //funciones para crear y modificar tareas\n    function createTask(string memory _description) public {\n        tasks[taskCounter] = Task(taskCounter,_description, false, block.timestamp);\n        taskCounter ++;\n        emit TaskCreated(taskCounter, _description, false, block.timestamp);\n    }\n\n    function toggleCompleted(uint _id) public {\n        Task memory _task = tasks[_id];\n        _task.completed = !_task.completed;\n        tasks[_id] = _task;\n    }\n}",
  "sourcePath": "/home/casuso/blockchain_exercise/contracts/TaskContract.sol",
  "compiler": {
    "name": "solc",
    "version": "0.8.6+commit.11564f7e.Emscripten.clang"
  },
  "schemaVersion": "3.4.4",
  "updatedAt": "2021-12-20T10:14:49.614Z",
  "networkType": "ethereum",
  "devdoc": {
    "kind": "dev",
    "methods": {},
    "version": 1
  },
  "userdoc": {
    "kind": "user",
    "methods": {},
    "version": 1
  }
}